:1000000071C000008AC0000088C0000086C00000E7
:1000100084C0000082C0000080C000007EC00000DC
:100020007CC000007AC0000078C0000076C00000EC
:1000300074C0000072C0000070C000006EC00000FC
:100040006CC000006AC0000068C0000066C000000C
:1000500064C0000062C0000060C0000075C0000005
:100060005CC000005AC0000058C0000056C000002C
:1000700054C0000052C0000050C000004EC000003C
:100080004CC000004AC0000048C0000046C000004C
:1000900044C0000042C0000040C000003EC000005C
:1000A0003CC000003AC0000038C00000DC00DE00A8
:1000B000E000E200E400E600E800EA00EC00EE0008
:1000C000F000F200F400F600010103010501070150
:1000D00009010B010D010F01110113011501170198
:1000E00019011B0111241FBECFEFDAE0DEBFCDBF27
:1000F00011E0A0E0B1E0ECE8F3E002C005900D9261
:10010000A230B107D9F721E0A2E0B1E001C01D9211
:10011000AC30B207E1F725D137C172CF8EEF84B989
:1001200080EC87B990ED9AB91DB810BA15B818B817
:1001300093E29BB994E09EB981BB85B7806885BF87
:1001400085B7806885BF08951F920F920FB60F92F2
:1001500011248F939F93EF93FF9389ED86BDE2E087
:10016000F1E08081918101969183808382819381E6
:1001700001969383828384819581019695838483FC
:1001800086819781019697838683808591850196E4
:1001900091878087FF91EF919F918F910F900FBE74
:1001A0000F901F90189590E0FC013197EE30F1050B
:1001B000F0F4EA5AFF4FE2C02F9A08952B9A08955F
:1001C000299A08952A9A08955C9A08955E9A089546
:1001D0005F9A08952C9A08952D9A08952E9A08955D
:1001E000469A0895479A0895289A0895769A089508
:1001F00090E0FC013197EE30F105F0F4EC59FF4F3F
:10020000BDC02F9808952B980895299808952A988D
:1002100008955C9808955E9808955F9808952C98C5
:1002200008952D9808952E98089546980895479812
:1002300008952898089576980895662311F0B3CF0D
:100240000895D6CF0895CF93809100018823A9F017
:10025000C1E061E08C2FF1DF2FE78AE196E02150C9
:1002600080409040E1F700C0000060E08C2FE5DFA7
:10027000CF5F809100018C1760F7CF910895DF92D6
:10028000EF92FF920F931F93CF93DF939091000112
:100290009923B1F0D62EC1E0D1E0E82E880FFF08F7
:1002A0009C2F9D27092F017010E00E151F0519F4D2
:1002B0006D2D8C2FC2DFCF5F909100019C1780F7CE
:1002C0002FE78AE196E0215080409040E1F700C09E
:1002D0000000DF91CF911F910F91FF90EF90DF9081
:1002E00008950F931F93CF9306E010E0C1E061E003
:1002F0008C2FC5DF60E08C2FC2DF81E0C11180E070
:10030000C82F0150110999F7CF911F910F910895AE
:10031000CF93DF9390910001992351F0D82FC1E042
:100320006D2F8C2F8ADFCF5F909100019C17C0F753
:100330002FEF84E39CE0215080409040E1F700C023
:100340000000DF91CF910895CF93DF93C3E0D0E019
:1003500081E0DEDF80E0DCDF2197D1F7DF91CF9114
:100360000895DCDE499902C0EFDFFCCF4D9902C051
:10037000B8DFF8CF4899F6CF66DFF4CFEE0FFF1F56
:0C0380000590F491E02D0994F894FFCF53
:02038C000E0061
:00000001FF
